{
  "_format": "hh-sol-artifact-1",
  "contractName": "LadiesGangERC721A",
  "sourceName": "contracts/LadiesGangERC721A.sol",
  "abi": [
    {
      "inputs": [
        {
          "internalType": "bytes32",
          "name": "_merkleRoot",
          "type": "bytes32"
        },
        {
          "internalType": "string",
          "name": "_baseURI",
          "type": "string"
        }
      ],
      "stateMutability": "nonpayable",
      "type": "constructor"
    },
    {
      "inputs": [],
      "name": "ApprovalCallerNotOwnerNorApproved",
      "type": "error"
    },
    {
      "inputs": [],
      "name": "ApprovalQueryForNonexistentToken",
      "type": "error"
    },
    {
      "inputs": [],
      "name": "ApprovalToCurrentOwner",
      "type": "error"
    },
    {
      "inputs": [],
      "name": "ApproveToCaller",
      "type": "error"
    },
    {
      "inputs": [],
      "name": "BalanceQueryForZeroAddress",
      "type": "error"
    },
    {
      "inputs": [],
      "name": "MintToZeroAddress",
      "type": "error"
    },
    {
      "inputs": [],
      "name": "MintZeroQuantity",
      "type": "error"
    },
    {
      "inputs": [],
      "name": "OwnerQueryForNonexistentToken",
      "type": "error"
    },
    {
      "inputs": [],
      "name": "TransferCallerNotOwnerNorApproved",
      "type": "error"
    },
    {
      "inputs": [],
      "name": "TransferFromIncorrectOwner",
      "type": "error"
    },
    {
      "inputs": [],
      "name": "TransferToNonERC721ReceiverImplementer",
      "type": "error"
    },
    {
      "inputs": [],
      "name": "TransferToZeroAddress",
      "type": "error"
    },
    {
      "anonymous": false,
      "inputs": [
        {
          "indexed": true,
          "internalType": "address",
          "name": "owner",
          "type": "address"
        },
        {
          "indexed": true,
          "internalType": "address",
          "name": "approved",
          "type": "address"
        },
        {
          "indexed": true,
          "internalType": "uint256",
          "name": "tokenId",
          "type": "uint256"
        }
      ],
      "name": "Approval",
      "type": "event"
    },
    {
      "anonymous": false,
      "inputs": [
        {
          "indexed": true,
          "internalType": "address",
          "name": "owner",
          "type": "address"
        },
        {
          "indexed": true,
          "internalType": "address",
          "name": "operator",
          "type": "address"
        },
        {
          "indexed": false,
          "internalType": "bool",
          "name": "approved",
          "type": "bool"
        }
      ],
      "name": "ApprovalForAll",
      "type": "event"
    },
    {
      "anonymous": false,
      "inputs": [
        {
          "indexed": true,
          "internalType": "contract IERC20",
          "name": "token",
          "type": "address"
        },
        {
          "indexed": false,
          "internalType": "address",
          "name": "to",
          "type": "address"
        },
        {
          "indexed": false,
          "internalType": "uint256",
          "name": "amount",
          "type": "uint256"
        }
      ],
      "name": "ERC20PaymentReleased",
      "type": "event"
    },
    {
      "anonymous": false,
      "inputs": [
        {
          "indexed": true,
          "internalType": "address",
          "name": "previousOwner",
          "type": "address"
        },
        {
          "indexed": true,
          "internalType": "address",
          "name": "newOwner",
          "type": "address"
        }
      ],
      "name": "OwnershipTransferred",
      "type": "event"
    },
    {
      "anonymous": false,
      "inputs": [
        {
          "indexed": false,
          "internalType": "address",
          "name": "account",
          "type": "address"
        },
        {
          "indexed": false,
          "internalType": "uint256",
          "name": "shares",
          "type": "uint256"
        }
      ],
      "name": "PayeeAdded",
      "type": "event"
    },
    {
      "anonymous": false,
      "inputs": [
        {
          "indexed": false,
          "internalType": "address",
          "name": "from",
          "type": "address"
        },
        {
          "indexed": false,
          "internalType": "uint256",
          "name": "amount",
          "type": "uint256"
        }
      ],
      "name": "PaymentReceived",
      "type": "event"
    },
    {
      "anonymous": false,
      "inputs": [
        {
          "indexed": false,
          "internalType": "address",
          "name": "to",
          "type": "address"
        },
        {
          "indexed": false,
          "internalType": "uint256",
          "name": "amount",
          "type": "uint256"
        }
      ],
      "name": "PaymentReleased",
      "type": "event"
    },
    {
      "anonymous": false,
      "inputs": [
        {
          "indexed": true,
          "internalType": "address",
          "name": "from",
          "type": "address"
        },
        {
          "indexed": true,
          "internalType": "address",
          "name": "to",
          "type": "address"
        },
        {
          "indexed": true,
          "internalType": "uint256",
          "name": "tokenId",
          "type": "uint256"
        }
      ],
      "name": "Transfer",
      "type": "event"
    },
    {
      "inputs": [
        {
          "internalType": "address",
          "name": "to",
          "type": "address"
        },
        {
          "internalType": "uint256",
          "name": "tokenId",
          "type": "uint256"
        }
      ],
      "name": "approve",
      "outputs": [],
      "stateMutability": "nonpayable",
      "type": "function"
    },
    {
      "inputs": [
        {
          "internalType": "address",
          "name": "owner",
          "type": "address"
        }
      ],
      "name": "balanceOf",
      "outputs": [
        {
          "internalType": "uint256",
          "name": "",
          "type": "uint256"
        }
      ],
      "stateMutability": "view",
      "type": "function"
    },
    {
      "inputs": [],
      "name": "baseURI",
      "outputs": [
        {
          "internalType": "string",
          "name": "",
          "type": "string"
        }
      ],
      "stateMutability": "view",
      "type": "function"
    },
    {
      "inputs": [
        {
          "internalType": "uint256",
          "name": "tokenId",
          "type": "uint256"
        }
      ],
      "name": "getApproved",
      "outputs": [
        {
          "internalType": "address",
          "name": "",
          "type": "address"
        }
      ],
      "stateMutability": "view",
      "type": "function"
    },
    {
      "inputs": [
        {
          "internalType": "address",
          "name": "_to",
          "type": "address"
        },
        {
          "internalType": "uint256",
          "name": "_quantity",
          "type": "uint256"
        }
      ],
      "name": "gift",
      "outputs": [],
      "stateMutability": "nonpayable",
      "type": "function"
    },
    {
      "inputs": [
        {
          "internalType": "address",
          "name": "owner",
          "type": "address"
        },
        {
          "internalType": "address",
          "name": "operator",
          "type": "address"
        }
      ],
      "name": "isApprovedForAll",
      "outputs": [
        {
          "internalType": "bool",
          "name": "",
          "type": "bool"
        }
      ],
      "stateMutability": "view",
      "type": "function"
    },
    {
      "inputs": [],
      "name": "isPaused",
      "outputs": [
        {
          "internalType": "bool",
          "name": "",
          "type": "bool"
        }
      ],
      "stateMutability": "view",
      "type": "function"
    },
    {
      "inputs": [],
      "name": "merkleRoot",
      "outputs": [
        {
          "internalType": "bytes32",
          "name": "",
          "type": "bytes32"
        }
      ],
      "stateMutability": "view",
      "type": "function"
    },
    {
      "inputs": [],
      "name": "name",
      "outputs": [
        {
          "internalType": "string",
          "name": "",
          "type": "string"
        }
      ],
      "stateMutability": "view",
      "type": "function"
    },
    {
      "inputs": [],
      "name": "owner",
      "outputs": [
        {
          "internalType": "address",
          "name": "",
          "type": "address"
        }
      ],
      "stateMutability": "view",
      "type": "function"
    },
    {
      "inputs": [
        {
          "internalType": "uint256",
          "name": "tokenId",
          "type": "uint256"
        }
      ],
      "name": "ownerOf",
      "outputs": [
        {
          "internalType": "address",
          "name": "",
          "type": "address"
        }
      ],
      "stateMutability": "view",
      "type": "function"
    },
    {
      "inputs": [
        {
          "internalType": "uint256",
          "name": "index",
          "type": "uint256"
        }
      ],
      "name": "payee",
      "outputs": [
        {
          "internalType": "address",
          "name": "",
          "type": "address"
        }
      ],
      "stateMutability": "view",
      "type": "function"
    },
    {
      "inputs": [
        {
          "internalType": "address",
          "name": "_account",
          "type": "address"
        },
        {
          "internalType": "uint256",
          "name": "_quantity",
          "type": "uint256"
        }
      ],
      "name": "publicMint",
      "outputs": [],
      "stateMutability": "payable",
      "type": "function"
    },
    {
      "inputs": [],
      "name": "publicSalePrice",
      "outputs": [
        {
          "internalType": "uint256",
          "name": "",
          "type": "uint256"
        }
      ],
      "stateMutability": "view",
      "type": "function"
    },
    {
      "inputs": [
        {
          "internalType": "address payable",
          "name": "account",
          "type": "address"
        }
      ],
      "name": "release",
      "outputs": [],
      "stateMutability": "nonpayable",
      "type": "function"
    },
    {
      "inputs": [
        {
          "internalType": "contract IERC20",
          "name": "token",
          "type": "address"
        },
        {
          "internalType": "address",
          "name": "account",
          "type": "address"
        }
      ],
      "name": "release",
      "outputs": [],
      "stateMutability": "nonpayable",
      "type": "function"
    },
    {
      "inputs": [],
      "name": "releaseAll",
      "outputs": [],
      "stateMutability": "nonpayable",
      "type": "function"
    },
    {
      "inputs": [
        {
          "internalType": "contract IERC20",
          "name": "token",
          "type": "address"
        },
        {
          "internalType": "address",
          "name": "account",
          "type": "address"
        }
      ],
      "name": "released",
      "outputs": [
        {
          "internalType": "uint256",
          "name": "",
          "type": "uint256"
        }
      ],
      "stateMutability": "view",
      "type": "function"
    },
    {
      "inputs": [
        {
          "internalType": "address",
          "name": "account",
          "type": "address"
        }
      ],
      "name": "released",
      "outputs": [
        {
          "internalType": "uint256",
          "name": "",
          "type": "uint256"
        }
      ],
      "stateMutability": "view",
      "type": "function"
    },
    {
      "inputs": [],
      "name": "renounceOwnership",
      "outputs": [],
      "stateMutability": "nonpayable",
      "type": "function"
    },
    {
      "inputs": [
        {
          "internalType": "address",
          "name": "from",
          "type": "address"
        },
        {
          "internalType": "address",
          "name": "to",
          "type": "address"
        },
        {
          "internalType": "uint256",
          "name": "tokenId",
          "type": "uint256"
        }
      ],
      "name": "safeTransferFrom",
      "outputs": [],
      "stateMutability": "nonpayable",
      "type": "function"
    },
    {
      "inputs": [
        {
          "internalType": "address",
          "name": "from",
          "type": "address"
        },
        {
          "internalType": "address",
          "name": "to",
          "type": "address"
        },
        {
          "internalType": "uint256",
          "name": "tokenId",
          "type": "uint256"
        },
        {
          "internalType": "bytes",
          "name": "_data",
          "type": "bytes"
        }
      ],
      "name": "safeTransferFrom",
      "outputs": [],
      "stateMutability": "nonpayable",
      "type": "function"
    },
    {
      "inputs": [],
      "name": "saleStartTime",
      "outputs": [
        {
          "internalType": "uint256",
          "name": "",
          "type": "uint256"
        }
      ],
      "stateMutability": "view",
      "type": "function"
    },
    {
      "inputs": [],
      "name": "sellingStep",
      "outputs": [
        {
          "internalType": "enum LadiesGangERC721A.Step",
          "name": "",
          "type": "uint8"
        }
      ],
      "stateMutability": "view",
      "type": "function"
    },
    {
      "inputs": [
        {
          "internalType": "address",
          "name": "operator",
          "type": "address"
        },
        {
          "internalType": "bool",
          "name": "approved",
          "type": "bool"
        }
      ],
      "name": "setApprovalForAll",
      "outputs": [],
      "stateMutability": "nonpayable",
      "type": "function"
    },
    {
      "inputs": [
        {
          "internalType": "string",
          "name": "_baseURI",
          "type": "string"
        }
      ],
      "name": "setBaseURI",
      "outputs": [],
      "stateMutability": "nonpayable",
      "type": "function"
    },
    {
      "inputs": [
        {
          "internalType": "bytes32",
          "name": "_merkleRoot",
          "type": "bytes32"
        }
      ],
      "name": "setMerkleRoot",
      "outputs": [],
      "stateMutability": "nonpayable",
      "type": "function"
    },
    {
      "inputs": [
        {
          "internalType": "bool",
          "name": "_isPaused",
          "type": "bool"
        }
      ],
      "name": "setPaused",
      "outputs": [],
      "stateMutability": "nonpayable",
      "type": "function"
    },
    {
      "inputs": [
        {
          "internalType": "uint256",
          "name": "_publicSalePrice",
          "type": "uint256"
        }
      ],
      "name": "setPublicSalePrice",
      "outputs": [],
      "stateMutability": "nonpayable",
      "type": "function"
    },
    {
      "inputs": [
        {
          "internalType": "uint256",
          "name": "_saleStartTime",
          "type": "uint256"
        }
      ],
      "name": "setSaleStartTime",
      "outputs": [],
      "stateMutability": "nonpayable",
      "type": "function"
    },
    {
      "inputs": [
        {
          "internalType": "uint256",
          "name": "_step",
          "type": "uint256"
        }
      ],
      "name": "setStep",
      "outputs": [],
      "stateMutability": "nonpayable",
      "type": "function"
    },
    {
      "inputs": [
        {
          "internalType": "uint256",
          "name": "_wlSalePrice",
          "type": "uint256"
        }
      ],
      "name": "setWlSalePrice",
      "outputs": [],
      "stateMutability": "nonpayable",
      "type": "function"
    },
    {
      "inputs": [
        {
          "internalType": "address",
          "name": "account",
          "type": "address"
        }
      ],
      "name": "shares",
      "outputs": [
        {
          "internalType": "uint256",
          "name": "",
          "type": "uint256"
        }
      ],
      "stateMutability": "view",
      "type": "function"
    },
    {
      "inputs": [
        {
          "internalType": "bytes4",
          "name": "interfaceId",
          "type": "bytes4"
        }
      ],
      "name": "supportsInterface",
      "outputs": [
        {
          "internalType": "bool",
          "name": "",
          "type": "bool"
        }
      ],
      "stateMutability": "view",
      "type": "function"
    },
    {
      "inputs": [],
      "name": "symbol",
      "outputs": [
        {
          "internalType": "string",
          "name": "",
          "type": "string"
        }
      ],
      "stateMutability": "view",
      "type": "function"
    },
    {
      "inputs": [
        {
          "internalType": "uint256",
          "name": "_tokenId",
          "type": "uint256"
        }
      ],
      "name": "tokenURI",
      "outputs": [
        {
          "internalType": "string",
          "name": "",
          "type": "string"
        }
      ],
      "stateMutability": "view",
      "type": "function"
    },
    {
      "inputs": [
        {
          "internalType": "contract IERC20",
          "name": "token",
          "type": "address"
        }
      ],
      "name": "totalReleased",
      "outputs": [
        {
          "internalType": "uint256",
          "name": "",
          "type": "uint256"
        }
      ],
      "stateMutability": "view",
      "type": "function"
    },
    {
      "inputs": [],
      "name": "totalReleased",
      "outputs": [
        {
          "internalType": "uint256",
          "name": "",
          "type": "uint256"
        }
      ],
      "stateMutability": "view",
      "type": "function"
    },
    {
      "inputs": [],
      "name": "totalShares",
      "outputs": [
        {
          "internalType": "uint256",
          "name": "",
          "type": "uint256"
        }
      ],
      "stateMutability": "view",
      "type": "function"
    },
    {
      "inputs": [],
      "name": "totalSupply",
      "outputs": [
        {
          "internalType": "uint256",
          "name": "",
          "type": "uint256"
        }
      ],
      "stateMutability": "view",
      "type": "function"
    },
    {
      "inputs": [
        {
          "internalType": "address",
          "name": "from",
          "type": "address"
        },
        {
          "internalType": "address",
          "name": "to",
          "type": "address"
        },
        {
          "internalType": "uint256",
          "name": "tokenId",
          "type": "uint256"
        }
      ],
      "name": "transferFrom",
      "outputs": [],
      "stateMutability": "nonpayable",
      "type": "function"
    },
    {
      "inputs": [
        {
          "internalType": "address",
          "name": "newOwner",
          "type": "address"
        }
      ],
      "name": "transferOwnership",
      "outputs": [],
      "stateMutability": "nonpayable",
      "type": "function"
    },
    {
      "inputs": [
        {
          "internalType": "address",
          "name": "_account",
          "type": "address"
        },
        {
          "internalType": "uint256",
          "name": "_quantity",
          "type": "uint256"
        },
        {
          "internalType": "bytes32[]",
          "name": "_proof",
          "type": "bytes32[]"
        }
      ],
      "name": "whitelistMint",
      "outputs": [],
      "stateMutability": "payable",
      "type": "function"
    },
    {
      "inputs": [],
      "name": "wlSalePrice",
      "outputs": [
        {
          "internalType": "uint256",
          "name": "",
          "type": "uint256"
        }
      ],
      "stateMutability": "view",
      "type": "function"
    },
    {
      "stateMutability": "payable",
      "type": "receive"
    }
  ],
  "bytecode": "0x66038d7ea4c680006011556605543df729c0006012556362513d0660135560c060405273df3e18d64bc6a983f673ab319ccae4f1a57c7097608090815273cd3b766ccdd6ae721141f452c550ca635964ce7160a0526200006490601a90600262000598565b50604080518082019091526102bc815261012760208201526200008c90601b90600262000602565b503480156200009a57600080fd5b50604051620037f7380380620037f7833981016040819052620000bd91620006f0565b601a8054806020026020016040519081016040528092919081815260200182805480156200011557602002820191906000526020600020905b81546001600160a01b03168152600190910190602001808311620000f6575b5050505050601b8054806020026020016040519081016040528092919081815260200182805480156200016857602002820191906000526020600020905b81548152602001906001019080831162000153575b50505050506040518060400160405280600b81526020016a4c61646965732047616e6760a81b815250604051806040016040528060028152602001614c4760f01b815250620001c6620001c06200035660201b60201c565b6200035a565b8151620001db90600390602085019062000646565b508051620001f190600490602084019062000646565b506000600155505080518251146200026b5760405162461bcd60e51b815260206004820152603260248201527f5061796d656e7453706c69747465723a2070617965657320616e6420736861726044820152710cae640d8cadccee8d040dad2e6dac2e8c6d60731b60648201526084015b60405180910390fd5b6000825111620002be5760405162461bcd60e51b815260206004820152601a60248201527f5061796d656e7453706c69747465723a206e6f20706179656573000000000000604482015260640162000262565b60005b82518110156200032a5762000315838281518110620002e457620002e4620007da565b6020026020010151838381518110620003015762000301620007da565b6020026020010151620003aa60201b60201c565b80620003218162000806565b915050620002c1565b505050601482905580516200034790601590602084019062000646565b5050601a54601955506200087c565b3390565b600080546001600160a01b038381166001600160a01b0319831681178455604051919092169283917f8be0079c531659141344cd1fd0a4f28419497f9722a3daafe3b4186f6b6457e09190a35050565b6001600160a01b038216620004175760405162461bcd60e51b815260206004820152602c60248201527f5061796d656e7453706c69747465723a206163636f756e74206973207468652060448201526b7a65726f206164647265737360a01b606482015260840162000262565b60008111620004695760405162461bcd60e51b815260206004820152601d60248201527f5061796d656e7453706c69747465723a20736861726573206172652030000000604482015260640162000262565b6001600160a01b0382166000908152600b602052604090205415620004e55760405162461bcd60e51b815260206004820152602b60248201527f5061796d656e7453706c69747465723a206163636f756e7420616c726561647960448201526a206861732073686172657360a81b606482015260840162000262565b600d8054600181019091557fd7b6990105719101dabeb77144f2a3385c8033acd3af97e9423a695e81ad1eb50180546001600160a01b0319166001600160a01b0384169081179091556000908152600b602052604090208190556009546200054f90829062000824565b600955604080516001600160a01b0384168152602081018390527f40c340f65e17194d14ddddb073d3c9f888e3cb52b5aae0c6c7706b4fbc905fac910160405180910390a15050565b828054828255906000526020600020908101928215620005f0579160200282015b82811115620005f057825182546001600160a01b0319166001600160a01b03909116178255602090920191600190910190620005b9565b50620005fe929150620006c3565b5090565b828054828255906000526020600020908101928215620005f0579160200282015b82811115620005f0578251829061ffff1690559160200191906001019062000623565b82805462000654906200083f565b90600052602060002090601f016020900481019282620006785760008555620005f0565b82601f106200069357805160ff1916838001178555620005f0565b82800160010185558215620005f0579182015b82811115620005f0578251825591602001919060010190620006a6565b5b80821115620005fe5760008155600101620006c4565b634e487b7160e01b600052604160045260246000fd5b600080604083850312156200070457600080fd5b8251602080850151919350906001600160401b03808211156200072657600080fd5b818601915086601f8301126200073b57600080fd5b815181811115620007505762000750620006da565b604051601f8201601f19908116603f011681019083821181831017156200077b576200077b620006da565b8160405282815289868487010111156200079457600080fd5b600093505b82841015620007b8578484018601518185018701529285019262000799565b82841115620007ca5760008684830101525b8096505050505050509250929050565b634e487b7160e01b600052603260045260246000fd5b634e487b7160e01b600052601160045260246000fd5b60006000198214156200081d576200081d620007f0565b5060010190565b600082198211156200083a576200083a620007f0565b500190565b600181811c908216806200085457607f821691505b602082108114156200087657634e487b7160e01b600052602260045260246000fd5b50919050565b612f6b806200088c6000396000f3fe60806040526004361061026b5760003560e01c8063734c66bd11610144578063bf332d61116100b6578063ce7c2ac21161007a578063ce7c2ac21461076b578063d79779b2146107a1578063e33b7de3146107d7578063e985e9c5146107ec578063f2fde38b14610835578063f8dcbddb1461085557600080fd5b8063bf332d61146106d1578063c87b56dd146106f1578063cbccefb214610711578063cbce4c9714610738578063ce6df2b91461075857600080fd5b806395d89b411161010857806395d89b41146106165780639852595c1461062b5780639b6860c814610661578063a22cb46514610677578063b187bd2614610697578063b88d4fde146106b157600080fd5b8063734c66bd14610582578063791a2519146105985780637cb64759146105b85780638b83209b146105d85780638da5cb5b146105f857600080fd5b8063406072a9116101dd57806355f804b3116101a157806355f804b3146104e35780635be7fde8146105035780636352211e146105185780636c0360eb1461053857806370a082311461054d578063715018a61461056d57600080fd5b8063406072a91461042a57806342842e0e1461047057806348b75044146104905780634b11faaf146104b0578063525f8a5c146104c357600080fd5b806318160ddd1161022f57806318160ddd1461038657806319165587146103a95780631cbaee2d146103c957806323b872dd146103df5780632eb4a7ab146103ff5780633a98ef391461041557600080fd5b806301ffc9a7146102b557806306fdde03146102ea578063081812fc1461030c578063095ea7b31461034457806316c38b3c1461036657600080fd5b366102b05760405162461bcd60e51b815260206004820152601060248201526f13db9b1e481a59881e5bdd481b5a5b9d60821b60448201526064015b60405180910390fd5b600080fd5b3480156102c157600080fd5b506102d56102d03660046127ed565b610875565b60405190151581526020015b60405180910390f35b3480156102f657600080fd5b506102ff6108c7565b6040516102e19190612862565b34801561031857600080fd5b5061032c610327366004612875565b610959565b6040516001600160a01b0390911681526020016102e1565b34801561035057600080fd5b5061036461035f3660046128a3565b61099d565b005b34801561037257600080fd5b506103646103813660046128dd565b610a2b565b34801561039257600080fd5b50600254600154035b6040519081526020016102e1565b3480156103b557600080fd5b506103646103c43660046128fa565b610a68565b3480156103d557600080fd5b5061039b60135481565b3480156103eb57600080fd5b506103646103fa366004612917565b610b96565b34801561040b57600080fd5b5061039b60145481565b34801561042157600080fd5b5060095461039b565b34801561043657600080fd5b5061039b610445366004612958565b6001600160a01b039182166000908152600f6020908152604080832093909416825291909152205490565b34801561047c57600080fd5b5061036461048b366004612917565b610ba1565b34801561049c57600080fd5b506103646104ab366004612958565b610bbc565b6103646104be366004612991565b610d95565b3480156104cf57600080fd5b506103646104de366004612875565b61111d565b3480156104ef57600080fd5b506103646104fe366004612aa9565b61114c565b34801561050f57600080fd5b5061036461118d565b34801561052457600080fd5b5061032c610533366004612875565b6111bb565b34801561054457600080fd5b506102ff6111cd565b34801561055957600080fd5b5061039b6105683660046128fa565b61125b565b34801561057957600080fd5b506103646112aa565b34801561058e57600080fd5b5061039b60115481565b3480156105a457600080fd5b506103646105b3366004612875565b6112e0565b3480156105c457600080fd5b506103646105d3366004612875565b61130f565b3480156105e457600080fd5b5061032c6105f3366004612875565b61133e565b34801561060457600080fd5b506000546001600160a01b031661032c565b34801561062257600080fd5b506102ff61136e565b34801561063757600080fd5b5061039b6106463660046128fa565b6001600160a01b03166000908152600c602052604090205490565b34801561066d57600080fd5b5061039b60125481565b34801561068357600080fd5b50610364610692366004612af2565b61137d565b3480156106a357600080fd5b506018546102d59060ff1681565b3480156106bd57600080fd5b506103646106cc366004612b20565b611413565b3480156106dd57600080fd5b506103646106ec366004612875565b611464565b3480156106fd57600080fd5b506102ff61070c366004612875565b611493565b34801561071d57600080fd5b5060105461072b9060ff1681565b6040516102e19190612bb6565b34801561074457600080fd5b506103646107533660046128a3565b61151c565b6103646107663660046128a3565b611614565b34801561077757600080fd5b5061039b6107863660046128fa565b6001600160a01b03166000908152600b602052604090205490565b3480156107ad57600080fd5b5061039b6107bc3660046128fa565b6001600160a01b03166000908152600e602052604090205490565b3480156107e357600080fd5b50600a5461039b565b3480156107f857600080fd5b506102d5610807366004612958565b6001600160a01b03918216600090815260086020908152604080832093909416825291909152205460ff1690565b34801561084157600080fd5b506103646108503660046128fa565b61196e565b34801561086157600080fd5b50610364610870366004612875565b611a06565b60006001600160e01b031982166380ac58cd60e01b14806108a657506001600160e01b03198216635b5e139f60e01b145b806108c157506301ffc9a760e01b6001600160e01b03198316145b92915050565b6060600380546108d690612bde565b80601f016020809104026020016040519081016040528092919081815260200182805461090290612bde565b801561094f5780601f106109245761010080835404028352916020019161094f565b820191906000526020600020905b81548152906001019060200180831161093257829003601f168201915b5050505050905090565b600061096482611a66565b610981576040516333d1c03960e21b815260040160405180910390fd5b506000908152600760205260409020546001600160a01b031690565b60006109a8826111bb565b9050806001600160a01b0316836001600160a01b031614156109dd5760405163250fdee360e21b815260040160405180910390fd5b336001600160a01b038216148015906109fd57506109fb8133610807565b155b15610a1b576040516367d9dca160e11b815260040160405180910390fd5b610a26838383611a92565b505050565b6000546001600160a01b03163314610a555760405162461bcd60e51b81526004016102a790612c19565b6018805460ff1916911515919091179055565b6001600160a01b0381166000908152600b6020526040902054610a9d5760405162461bcd60e51b81526004016102a790612c4e565b6000610aa8600a5490565b610ab29047612caa565b90506000610adf8383610ada866001600160a01b03166000908152600c602052604090205490565b611aee565b905080610afe5760405162461bcd60e51b81526004016102a790612cc2565b6001600160a01b0383166000908152600c602052604081208054839290610b26908490612caa565b9250508190555080600a6000828254610b3f9190612caa565b90915550610b4f90508382611b36565b604080516001600160a01b0385168152602081018390527fdf20fd1e76bc69d672e4814fafb2c449bba3a5369d8359adf9e05e6fde87b056910160405180910390a1505050565b610a26838383611c4f565b610a2683838360405180602001604052806000815250611413565b6001600160a01b0381166000908152600b6020526040902054610bf15760405162461bcd60e51b81526004016102a790612c4e565b6001600160a01b0382166000908152600e60205260408120546040516370a0823160e01b81523060048201526001600160a01b038516906370a0823190602401602060405180830381865afa158015610c4e573d6000803e3d6000fd5b505050506040513d601f19601f82011682018060405250810190610c729190612d0d565b610c7c9190612caa565b90506000610cb58383610ada87876001600160a01b039182166000908152600f6020908152604080832093909416825291909152205490565b905080610cd45760405162461bcd60e51b81526004016102a790612cc2565b6001600160a01b038085166000908152600f6020908152604080832093871683529290529081208054839290610d0b908490612caa565b90915550506001600160a01b0384166000908152600e602052604081208054839290610d38908490612caa565b90915550610d499050848483611e3c565b604080516001600160a01b038581168252602082018490528616917f3be5b7a71e84ed12875d241991c70855ac5817d847039e17a9d895c1ceb0f18a910160405180910390a250505050565b323314610de45760405162461bcd60e51b815260206004820152601e60248201527f5468652063616c6c657220697320616e6f7468657220636f6e7472616374000060448201526064016102a7565b60185460ff1615610e2c5760405162461bcd60e51b815260206004820152601260248201527110dbdb9d1c9858dd081a5cc81c185d5cd95960721b60448201526064016102a7565b601354421015610e7e5760405162461bcd60e51b815260206004820152601860248201527f53616c6520686173206e6f74207374617274656420796574000000000000000060448201526064016102a7565b601354610e8d9061a8c0612caa565b4210610ece5760405162461bcd60e51b815260206004820152601060248201526f14d85b19481a5cc8199a5b9a5cda195960821b60448201526064016102a7565b60115480610f0b5760405162461bcd60e51b815260206004820152600a6024820152690507269636520697320360b41b60448201526064016102a7565b600160105460ff166004811115610f2457610f24612ba0565b14610f715760405162461bcd60e51b815260206004820152601f60248201527f57686974656c6973742073616c65206973206e6f74206163746976617465640060448201526064016102a7565b610f7c858484611e8e565b610fba5760405162461bcd60e51b815260206004820152600f60248201526e139bdd081dda1a5d195b1a5cdd1959608a1b60448201526064016102a7565b33600090815260166020526040902054600190610fd8908690612caa565b111561103b5760405162461bcd60e51b815260206004820152602c60248201527f596f752063616e206f6e6c79206765742031204e4654206f6e2074686520576860448201526b6974656c6973742053616c6560a01b60648201526084016102a7565b6107d08461104c6002546001540390565b6110569190612caa565b111561109a5760405162461bcd60e51b815260206004820152601360248201527213585e081cdd5c1c1b1e48195e18d959591959606a1b60448201526064016102a7565b6110a48482612d26565b3410156110e75760405162461bcd60e51b81526020600482015260116024820152704e6f7420656e6f756768742066756e647360781b60448201526064016102a7565b3360009081526016602052604081208054869290611106908490612caa565b9091555061111690508585611f0f565b5050505050565b6000546001600160a01b031633146111475760405162461bcd60e51b81526004016102a790612c19565b601355565b6000546001600160a01b031633146111765760405162461bcd60e51b81526004016102a790612c19565b805161118990601590602084019061273e565b5050565b60005b6019548110156111b8576111a66103c48261133e565b806111b081612d45565b915050611190565b50565b60006111c682611f29565b5192915050565b601580546111da90612bde565b80601f016020809104026020016040519081016040528092919081815260200182805461120690612bde565b80156112535780601f1061122857610100808354040283529160200191611253565b820191906000526020600020905b81548152906001019060200180831161123657829003601f168201915b505050505081565b60006001600160a01b038216611284576040516323d3ad8160e21b815260040160405180910390fd5b506001600160a01b031660009081526006602052604090205467ffffffffffffffff1690565b6000546001600160a01b031633146112d45760405162461bcd60e51b81526004016102a790612c19565b6112de6000612045565b565b6000546001600160a01b0316331461130a5760405162461bcd60e51b81526004016102a790612c19565b601255565b6000546001600160a01b031633146113395760405162461bcd60e51b81526004016102a790612c19565b601455565b6000600d828154811061135357611353612d60565b6000918252602090912001546001600160a01b031692915050565b6060600480546108d690612bde565b6001600160a01b0382163314156113a75760405163b06307db60e01b815260040160405180910390fd5b3360008181526008602090815260408083206001600160a01b03871680855290835292819020805460ff191686151590811790915590519081529192917f17307eab39ab6107e8899845ad3d59bd9653f200f220920489ca2b5937696c31910160405180910390a35050565b61141e848484611c4f565b6001600160a01b0383163b15158015611440575061143e84848484612095565b155b1561145e576040516368d2bf6b60e11b815260040160405180910390fd5b50505050565b6000546001600160a01b0316331461148e5760405162461bcd60e51b81526004016102a790612c19565b601155565b606061149e82611a66565b6114ea5760405162461bcd60e51b815260206004820152601f60248201527f55524920717565727920666f72206e6f6e6578697374656e7420746f6b656e0060448201526064016102a7565b60156114f58361217e565b604051602001611506929190612d92565b6040516020818303038152906040529050919050565b6000546001600160a01b031633146115465760405162461bcd60e51b81526004016102a790612c19565b600260105460ff16600481111561155f5761155f612ba0565b116115ac5760405162461bcd60e51b815260206004820152601d60248201527f4769667420697320616674657220746865207075626c69632053616c6500000060448201526064016102a7565b612710816115bd6002546001540390565b6115c79190612caa565b111561160a5760405162461bcd60e51b815260206004820152601260248201527152656163686564206d617820737570706c7960701b60448201526064016102a7565b6111898282611f0f565b3233146116635760405162461bcd60e51b815260206004820152601e60248201527f5468652063616c6c657220697320616e6f7468657220636f6e7472616374000060448201526064016102a7565b60185460ff16156116ab5760405162461bcd60e51b815260206004820152601260248201527110dbdb9d1c9858dd081a5cc81c185d5cd95960721b60448201526064016102a7565b6013546116bb9062015180612caa565b42101561170a5760405162461bcd60e51b815260206004820152601f60248201527f5075626c69632073616c6520686173206e6f742073746172746564207965740060448201526064016102a7565b60135461171a906202a300612caa565b42106117685760405162461bcd60e51b815260206004820152601760248201527f5075626c69632073616c652069732066696e697368656400000000000000000060448201526064016102a7565b601254806117a55760405162461bcd60e51b815260206004820152600a6024820152690507269636520697320360b41b60448201526064016102a7565b600260105460ff1660048111156117be576117be612ba0565b1461180b5760405162461bcd60e51b815260206004820152601c60248201527f5075626c69632073616c65206973206e6f74206163746976617465640000000060448201526064016102a7565b33600090815260176020526040902054600390611829908490612caa565b11156118895760405162461bcd60e51b815260206004820152602960248201527f596f752063616e206f6e6c79206765742033204e4654206f6e20746865205075604482015268626c69632053616c6560b81b60648201526084016102a7565b6118966064612710612e4d565b826118a46002546001540390565b6118ae9190612caa565b11156118f25760405162461bcd60e51b815260206004820152601360248201527213585e081cdd5c1c1b1e48195e18d959591959606a1b60448201526064016102a7565b6118fc8282612d26565b34101561193f5760405162461bcd60e51b81526020600482015260116024820152704e6f7420656e6f756768742066756e647360781b60448201526064016102a7565b336000908152601760205260408120805484929061195e908490612caa565b90915550610a2690508383611f0f565b6000546001600160a01b031633146119985760405162461bcd60e51b81526004016102a790612c19565b6001600160a01b0381166119fd5760405162461bcd60e51b815260206004820152602660248201527f4f776e61626c653a206e6577206f776e657220697320746865207a65726f206160448201526564647265737360d01b60648201526084016102a7565b6111b881612045565b6000546001600160a01b03163314611a305760405162461bcd60e51b81526004016102a790612c19565b806004811115611a4257611a42612ba0565b6010805460ff19166001836004811115611a5e57611a5e612ba0565b021790555050565b6000600154821080156108c1575050600090815260056020526040902054600160e01b900460ff161590565b60008281526007602052604080822080546001600160a01b0319166001600160a01b0387811691821790925591518593918516917f8c5be1e5ebec7d5bd14f71427d1e84f3dd0314c0f7b2291e5b200ac8c7c3b92591a4505050565b6009546001600160a01b0384166000908152600b602052604081205490918391611b189086612d26565b611b229190612e7a565b611b2c9190612e4d565b90505b9392505050565b80471015611b865760405162461bcd60e51b815260206004820152601d60248201527f416464726573733a20696e73756666696369656e742062616c616e636500000060448201526064016102a7565b6000826001600160a01b03168260405160006040518083038185875af1925050503d8060008114611bd3576040519150601f19603f3d011682016040523d82523d6000602084013e611bd8565b606091505b5050905080610a265760405162461bcd60e51b815260206004820152603a60248201527f416464726573733a20756e61626c6520746f2073656e642076616c75652c207260448201527f6563697069656e74206d6179206861766520726576657274656400000000000060648201526084016102a7565b6000611c5a82611f29565b9050836001600160a01b031681600001516001600160a01b031614611c915760405162a1148160e81b815260040160405180910390fd5b6000336001600160a01b0386161480611caf5750611caf8533610807565b80611cca575033611cbf84610959565b6001600160a01b0316145b905080611cea57604051632ce44b5f60e11b815260040160405180910390fd5b6001600160a01b038416611d1157604051633a954ecd60e21b815260040160405180910390fd5b611d1d60008487611a92565b6001600160a01b038581166000908152600660209081526040808320805467ffffffffffffffff1980821667ffffffffffffffff92831660001901831617909255898616808652838620805493841693831660019081018416949094179055898652600590945282852080546001600160e01b031916909417600160a01b42909216919091021783558701808452922080549193909116611df3576001548214611df3578054602086015167ffffffffffffffff16600160a01b026001600160e01b03199091166001600160a01b038a16171781555b50505082846001600160a01b0316866001600160a01b03167fddf252ad1be2c89b69c2b068fc378daa952ba7f163c4a11628f55a4df523b3ef60405160405180910390a4611116565b604080516001600160a01b038416602482015260448082018490528251808303909101815260649091019091526020810180516001600160e01b031663a9059cbb60e01b179052610a2690849061227c565b6000611b2c611ed6856040516bffffffffffffffffffffffff19606083901b166020820152600090603401604051602081830303815290604052805190602001209050919050565b84848080602002602001604051908101604052809392919081815260200183836020028082843760009201919091525061234e92505050565b61118982826040518060200160405280600081525061235d565b60408051606081018252600080825260208201819052918101919091528160015481101561202c57600081815260056020908152604091829020825160608101845290546001600160a01b0381168252600160a01b810467ffffffffffffffff1692820192909252600160e01b90910460ff1615159181018290529061202a5780516001600160a01b031615611fc0579392505050565b5060001901600081815260056020908152604091829020825160608101845290546001600160a01b038116808352600160a01b820467ffffffffffffffff1693830193909352600160e01b900460ff1615159281019290925215612025579392505050565b611fc0565b505b604051636f96cda160e11b815260040160405180910390fd5b600080546001600160a01b038381166001600160a01b0319831681178455604051919092169283917f8be0079c531659141344cd1fd0a4f28419497f9722a3daafe3b4186f6b6457e09190a35050565b604051630a85bd0160e11b81526000906001600160a01b0385169063150b7a02906120ca903390899088908890600401612e8e565b6020604051808303816000875af1925050508015612105575060408051601f3d908101601f1916820190925261210291810190612ecb565b60015b612160573d808015612133576040519150601f19603f3d011682016040523d82523d6000602084013e612138565b606091505b508051612158576040516368d2bf6b60e11b815260040160405180910390fd5b805181602001fd5b6001600160e01b031916630a85bd0160e11b1490505b949350505050565b6060816121a25750506040805180820190915260018152600360fc1b602082015290565b8160005b81156121cc57806121b681612d45565b91506121c59050600a83612e7a565b91506121a6565b60008167ffffffffffffffff8111156121e7576121e7612a1d565b6040519080825280601f01601f191660200182016040528015612211576020820181803683370190505b5090505b841561217657612226600183612e4d565b9150612233600a86612ee8565b61223e906030612caa565b60f81b81838151811061225357612253612d60565b60200101906001600160f81b031916908160001a905350612275600a86612e7a565b9450612215565b60006122d1826040518060400160405280602081526020017f5361666545524332303a206c6f772d6c6576656c2063616c6c206661696c6564815250856001600160a01b031661236a9092919063ffffffff16565b805190915015610a2657808060200190518101906122ef9190612efc565b610a265760405162461bcd60e51b815260206004820152602a60248201527f5361666545524332303a204552433230206f7065726174696f6e20646964206e6044820152691bdd081cdd58d8d9595960b21b60648201526084016102a7565b6000611b2f8260145485612379565b610a26838383600161238f565b6060611b2c8484600085612560565b6000826123868584612691565b14949350505050565b6001546001600160a01b0385166123b857604051622e076360e81b815260040160405180910390fd5b836123d65760405163b562e8dd60e01b815260040160405180910390fd5b6001600160a01b038516600081815260066020908152604080832080546fffffffffffffffffffffffffffffffff19811667ffffffffffffffff8083168c0181169182176801000000000000000067ffffffffffffffff1990941690921783900481168c01811690920217909155858452600590925290912080546001600160e01b031916909217600160a01b42909216919091021790558080850183801561248857506001600160a01b0387163b15155b15612511575b60405182906001600160a01b038916906000907fddf252ad1be2c89b69c2b068fc378daa952ba7f163c4a11628f55a4df523b3ef908290a46124d96000888480600101955088612095565b6124f6576040516368d2bf6b60e11b815260040160405180910390fd5b8082141561248e57826001541461250c57600080fd5b612557565b5b6040516001830192906001600160a01b038916906000907fddf252ad1be2c89b69c2b068fc378daa952ba7f163c4a11628f55a4df523b3ef908290a480821415612512575b50600155611116565b6060824710156125c15760405162461bcd60e51b815260206004820152602660248201527f416464726573733a20696e73756666696369656e742062616c616e636520666f6044820152651c8818d85b1b60d21b60648201526084016102a7565b6001600160a01b0385163b6126185760405162461bcd60e51b815260206004820152601d60248201527f416464726573733a2063616c6c20746f206e6f6e2d636f6e747261637400000060448201526064016102a7565b600080866001600160a01b031685876040516126349190612f19565b60006040518083038185875af1925050503d8060008114612671576040519150601f19603f3d011682016040523d82523d6000602084013e612676565b606091505b5091509150612686828286612705565b979650505050505050565b600081815b84518110156126fd5760008582815181106126b3576126b3612d60565b602002602001015190508083116126d957600083815260208290526040902092506126ea565b600081815260208490526040902092505b50806126f581612d45565b915050612696565b509392505050565b60608315612714575081611b2f565b8251156127245782518084602001fd5b8160405162461bcd60e51b81526004016102a79190612862565b82805461274a90612bde565b90600052602060002090601f01602090048101928261276c57600085556127b2565b82601f1061278557805160ff19168380011785556127b2565b828001600101855582156127b2579182015b828111156127b2578251825591602001919060010190612797565b506127be9291506127c2565b5090565b5b808211156127be57600081556001016127c3565b6001600160e01b0319811681146111b857600080fd5b6000602082840312156127ff57600080fd5b8135611b2f816127d7565b60005b8381101561282557818101518382015260200161280d565b8381111561145e5750506000910152565b6000815180845261284e81602086016020860161280a565b601f01601f19169290920160200192915050565b602081526000611b2f6020830184612836565b60006020828403121561288757600080fd5b5035919050565b6001600160a01b03811681146111b857600080fd5b600080604083850312156128b657600080fd5b82356128c18161288e565b946020939093013593505050565b80151581146111b857600080fd5b6000602082840312156128ef57600080fd5b8135611b2f816128cf565b60006020828403121561290c57600080fd5b8135611b2f8161288e565b60008060006060848603121561292c57600080fd5b83356129378161288e565b925060208401356129478161288e565b929592945050506040919091013590565b6000806040838503121561296b57600080fd5b82356129768161288e565b915060208301356129868161288e565b809150509250929050565b600080600080606085870312156129a757600080fd5b84356129b28161288e565b935060208501359250604085013567ffffffffffffffff808211156129d657600080fd5b818701915087601f8301126129ea57600080fd5b8135818111156129f957600080fd5b8860208260051b8501011115612a0e57600080fd5b95989497505060200194505050565b634e487b7160e01b600052604160045260246000fd5b600067ffffffffffffffff80841115612a4e57612a4e612a1d565b604051601f8501601f19908116603f01168101908282118183101715612a7657612a76612a1d565b81604052809350858152868686011115612a8f57600080fd5b858560208301376000602087830101525050509392505050565b600060208284031215612abb57600080fd5b813567ffffffffffffffff811115612ad257600080fd5b8201601f81018413612ae357600080fd5b61217684823560208401612a33565b60008060408385031215612b0557600080fd5b8235612b108161288e565b91506020830135612986816128cf565b60008060008060808587031215612b3657600080fd5b8435612b418161288e565b93506020850135612b518161288e565b925060408501359150606085013567ffffffffffffffff811115612b7457600080fd5b8501601f81018713612b8557600080fd5b612b9487823560208401612a33565b91505092959194509250565b634e487b7160e01b600052602160045260246000fd5b6020810160058310612bd857634e487b7160e01b600052602160045260246000fd5b91905290565b600181811c90821680612bf257607f821691505b60208210811415612c1357634e487b7160e01b600052602260045260246000fd5b50919050565b6020808252818101527f4f776e61626c653a2063616c6c6572206973206e6f7420746865206f776e6572604082015260600190565b60208082526026908201527f5061796d656e7453706c69747465723a206163636f756e7420686173206e6f2060408201526573686172657360d01b606082015260800190565b634e487b7160e01b600052601160045260246000fd5b60008219821115612cbd57612cbd612c94565b500190565b6020808252602b908201527f5061796d656e7453706c69747465723a206163636f756e74206973206e6f742060408201526a191d59481c185e5b595b9d60aa1b606082015260800190565b600060208284031215612d1f57600080fd5b5051919050565b6000816000190483118215151615612d4057612d40612c94565b500290565b6000600019821415612d5957612d59612c94565b5060010190565b634e487b7160e01b600052603260045260246000fd5b60008151612d8881856020860161280a565b9290920192915050565b600080845481600182811c915080831680612dae57607f831692505b6020808410821415612dce57634e487b7160e01b86526022600452602486fd5b818015612de25760018114612df357612e20565b60ff19861689528489019650612e20565b60008b81526020902060005b86811015612e185781548b820152908501908301612dff565b505084890196505b505050505050612e44612e338286612d76565b64173539b7b760d91b815260050190565b95945050505050565b600082821015612e5f57612e5f612c94565b500390565b634e487b7160e01b600052601260045260246000fd5b600082612e8957612e89612e64565b500490565b6001600160a01b0385811682528416602082015260408101839052608060608201819052600090612ec190830184612836565b9695505050505050565b600060208284031215612edd57600080fd5b8151611b2f816127d7565b600082612ef757612ef7612e64565b500690565b600060208284031215612f0e57600080fd5b8151611b2f816128cf565b60008251612f2b81846020870161280a565b919091019291505056fea26469706673582212201ebf80551797dd4ddfb362c434acf7ead7fce1404a0c1fae31d135088582ecfc64736f6c634300080c0033",
  "linkReferences": {},
  "deployedLinkReferences": {}
}